:020000040800F2
:10000000C0060020CD010008610E0008810D000827
:100010003D0E0008A9030008A3100008000000001E
:10002000000000000000000000000000650E000855
:10003000AB03000800000000630E0008670E000814
:10004000E7010008E7010008E7010008E7010008F0
:10005000E7010008E7010008E7010008E7010008E0
:10006000E7010008E7010008E7010008E7010008D0
:10007000E7010008E7010008E7010008E7010008C0
:10008000E7010008E7010008E7010008E7010008B0
:10009000E7010008E7010008E7010008E7010008A0
:1000A000E7010008E7010008E7010008E701000890
:1000B000E7010008E7010008E7010008E701000880
:1000C000E7010008E7010008E7010008E701000870
:1000D000E7010008E7010008E7010008E701000860
:1000E000E7010008E7010008E7010008E701000850
:1000F000E7010008E7010008E7010008E701000840
:10010000E7010008E7010008E7010008E70100082F
:10011000E7010008E7010008E7010008E70100081F
:10012000E7010008E7010008E7010008E70100080F
:1001300000F002F800F03AF80AA090E8000C8244BF
:100140008344AAF10107DA4501D100F02FF8AFF29C
:10015000090EBAE80F0013F0010F18BFFB1A43F0A5
:10016000010318476011000080110000103A24BFFD
:1001700078C878C1FAD8520724BF30C830C144BF0C
:1001800004680C607047000000230024002500264E
:10019000103A28BF78C1FBD8520728BF30C148BFEA
:1001A0000B6070471FB51FBD10B510BD00F077F88C
:1001B0001146FFF7F7FF00F085FF00F095F803B454
:1001C000FFF7F2FF03BC00F09DF8000009488047EC
:1001D00009480047FEE7FEE7FEE7FEE7FEE7FEE729
:1001E000FEE7FEE7FEE7FEE704480549054A064B41
:1001F00070470000C90E000831010008C00000204F
:10020000C0060020C0020020C002002010B5431C20
:1002100002E010F8011B71B18107FAD14FF00132F1
:1002200002C88C1A8C4314EAC211F9D0C01A0A060B
:1002300003D0C01E10BDC01A10BD0A0401D0801E1C
:1002400010BD0902FCD0401E10BD4FF0000200B5E9
:10025000134694469646203922BFA0E80C50A0E8E9
:100260000C50B1F12001BFF4F7AF090728BFA0E897
:100270000C5048BF0CC05DF804EB890028BF40F863
:10028000042B08BF704748BF20F8022B11F0804FA5
:1002900018BF00F8012B70477047704770477546CC
:1002A00000F02CF8AE4605006946534620F00700E2
:1002B000854618B020B5FFF797FFBDE820404FF006
:1002C00000064FF000074FF000084FF0000B21F040
:1002D0000701AC46ACE8C009ACE8C009ACE8C0090D
:1002E000ACE8C0098D46704710B50446AFF30080F6
:1002F0002046BDE81040FFF762BF0000004870478D
:100300005C00002001491820ABBEFEE72600020079
:10031000704700002DE9F04114A000F091FD1C4E43
:100320001C4F00244FF4807500222946304600F00F
:1003300058F900220421384600F053F9FA2000F061
:1003400035F801222946304600F04BF901220421FC
:10035000384600F046F9FA2000F028F8641C032C17
:10036000E2DBBDE8F0410CA000F06ABD3E3E204D4E
:100370006F64653A20426F7468204C454473204294
:100380006C696E6B696E672E2E2E0D0A00000000E0
:1003900000080140001401403E3E204D6F64653A64
:1003A00020456E642E0D0A00FEE7704770B50446C6
:1003B00000F01CF90546601C02D004480078044493
:1003C00000F014F9401BA042FAD370BD04000020D5
:1003D0002DE9F84FDFF8C8910024A9F1040B23465A
:1003E0000F2709F1040AABF1040ED1E00125A54065
:1003F00006EA0502AA4276D1DFF8A8C14E68A6EB4C
:100400000C0866452BD00DDC032E34D005DC36B34A
:10041000012E19D0022E2FD11BE0112E16D0122E34
:100420002AD119E0B8F5881F19D006DCB8F5803F4D
:1004300015D0B8F5801F1FD111E0B8F5001F0ED000
:10044000B8F5041F18D10AE0CB6815E0CB681B1D76
:1004500012E0CB6808330FE0CB680C330CE08B68FC
:100460002BB1012B4FF0080303D0456104E00423B6
:1004700002E0056100E00023FF2A01D8064601E002
:1004800000F104064FEA840501D9A5F12005D6F84C
:10049000008007FA05FC28EA0C0803FA05F548EA8B
:1004A0000508C6F800804D68ED0070D53E4DAE6978
:1004B00046F00106AE61AD6924F0030605F00105C2
:1004C00000953A4D06EB050CDCF80850A607360FF0
:1004D00007FA06F825EA0805DFF8D480404503D17D
:1004E0004FF0000825E052E0DFF8C880404502D117
:1004F0004FF001081DE0DFF8C080404502D14FF009
:10050000020816E0DFF8B480404502D14FF003083E
:100510000FE0DFF8AC80404502D14FF0040808E05E
:10052000DFF8A080404502D14FF0050801E04FF010
:10053000060808FA06F848EA0508CCF808804D686D
:10054000D9F80060ED024D4601D5164300E0964310
:100550002E604D68DAF80060AD02554601D51643AD
:1005600000E096432E604D68DBF80060AD035D4609
:1005700001D5164300E096432E604D68DEF800601A
:10058000ED03754601D5164300E096432E60641CCA
:100590000A681646E2407FF429AFBDE8F88F0000F4
:1005A000080401400000111000100240000001404A
:1005B00000080140000C01400010014000140140FF
:1005C00000180140001C01408068084000D0012054
:1005D0007047C26821EA02030A4043EA024101610E
:1005E00070470AB1016170470904FBE70148806860
:1005F000704700000400002002488168027811441E
:100600008160704704000020074810B5016841F080
:1006100010010160032000F067F80F2000F006F8D9
:1006200000F024F8002010BD0020024070B50D4DF0
:1006300004464FF47A712878B1FBF0F00A49096852
:10064000B1FBF0F000F0CEFA48B9102C07D200222E
:100650002146501E00F028F800206C6070BD01207B
:1006600070BD000004000020100000200C4808B5F8
:10067000816941F001018161816901F0010100910D
:10068000C16941F08051C161C06900F080500090A3
:100690000448416821F0E06141F00071416008BD0B
:1006A0000010024000000140F0B40E4B1B680C46E5
:1006B000C3F30223C3F10705042D00D90425191D36
:1006C000072901D2002300E0DB1E012606FA05F10E
:1006D000491E214099409E40761E16403143F0BC91
:1006E00000F0E0BC0CED00E0064900F007020868ED
:1006F0004FF6FF03184040EA0220034A1043086007
:10070000704700000CED00E00000FA052DE9F0470D
:100710000F46050061D0434E306800F00700B84234
:1007200009D2306820F0070038433060306800F0AC
:100730000700B84251D128683B4C810712D54007C9
:1007400003D5606840F4E06060602878000703D556
:10075000606840F4605060606068A96820F0F00054
:10076000084360602878C00728D06868012810D046
:100770002168022810D0890700292EDA616821F04B
:10078000030101436160FFF731FF804641F2883980
:100790000DE021688903EFE78901EDE7FFF726FF08
:1007A000A0EB0801494502D90320BDE8F087606845
:1007B000696800F00C00B0EB810FEFD1306800F0F9
:1007C0000700B8420BD9306820F00700384330608A
:1007D000306800F00700B84201D00120E5E7287832
:1007E000400705D56068E96820F4E0600843606070
:1007F0002878000706D56068296920F4605040EA2F
:10080000C100606000F038F86168084AC1F3031164
:10081000515CC8400649086006480068FFF706FFBB
:100820000020C2E70020024000100240AA12000887
:1008300010000020080000200448054900684968AD
:10084000044AC1F30221515CC840704710000020E7
:1008500000100240BA1200080448054900684968BF
:10086000044AC1F3C221515CC84070471000002007
:1008700000100240BA1200080E4A51680E4801F0FA
:100880000C03042B11D0082B0FD10C48C1F3834368
:10089000C903C05C0AD55168084AC1F34041921EA1
:1008A000515C054A5043B0FBF1F07047044948439E
:1008B000704700000010024000127A009A120008EF
:1008C00000093D002DE9F84F040070D02078C04D9C
:1008D000C00749D06868C0F38100012807D0686864
:1008E000C0F38100022809D16868C00306D52868D2
:1008F000800339D560680028E7D035E06068B0F53E
:10090000803F0BD010B1B0F5A02F11D0286820F493
:1009100080302860286820F4802002E0286840F4B5
:1009200080302860606890B1FFF760FE06460AE0FC
:10093000286840F480202860F0E700BFFFF756FEEB
:10094000801B642873D828688003F7D50CE0FFF774
:100950004DFE064605E000BFFFF748FE801B6428F9
:10096000F0D828688003F7D420789A4E80074FF09B
:1009700001094FF0000839D5686810F00C0F07D056
:100980006868C0F38100022809D16868C00306D4F2
:100990002868800714D52069012808D110E0206953
:1009A000B0B1C6F80090FFF721FE074605E00AE166
:1009B000FFF71CFEC01B0228C4D828688007F7D5A3
:1009C0002868616920F0F80040EAC10028600DE065
:1009D000C6F80080FFF70AFE074604E0FFF706FEB0
:1009E000C01B022823D828688007F7D42078000786
:1009F0002CD57948A169D9B1C0F80090FFF7F6FD70
:100A0000074604E0FFF7F2FDC01B02280FD8686A12
:100A10008007F7D571484FF4FA510068B0FBF1F048
:100A2000009000BF0098411E0091FAD20EE080E0D5
:100A3000C0F80080FFF7DAFD074604E0FFF7D6FDB7
:100A4000C01B022875D8686A8007F7D42078400751
:100A500060D5E8690027C00008D4E86940F08050FC
:100A6000E861E869012700F0805000905C48016867
:100A7000C90513D40168834641F480710160FFF712
:100A8000B5FD824606E000BFFFF7B0FDA0EB0A000F
:100A900064284ED8DBF80000C005F5D5E0680128D1
:100AA0000AD008B1052813D0286A20F00100286276
:100AB000286A20F0040002E0286A40F00100286261
:100AC000E06841F2883B98B1FFF790FD82460BE069
:100AD000286A40F004002862EEE700BFFFF786FDB9
:100AE000A0EB0A0159455AD8286A8007F6D50CE0D0
:100AF000FFF77CFD824605E0FFF778FDA0EB0A01D9
:100B000059454CD8286A8007F6D41FB1E86920F00F
:100B10008050E861E06988B36968C1F38101022906
:100B200044D00228C6F8608004D0FFF75FFD044679
:100B300038E034E0FFF75AFD074604E0FFF756FDC2
:100B4000C01B02282BD828688001F7D4206AB0F592
:100B5000803F05D16868A16820F4003008436860D0
:100B6000D4E908010843696821F4741108436860F6
:100B7000C6F86090FFF73AFD044606E025E000BFA6
:100B8000FFF734FD001B022809D828688001F7D53B
:100B90001BE000BFFFF72AFD001B022802D903203B
:100BA000BDE8F88F28688001F4D40EE00128F7D062
:100BB0006868226A00F48031914204D1616A00F4CD
:100BC0007010884201D00120EAE70020E8E7000029
:100BD0000010024000004242800442421000002007
:100BE0000070004010B5401EB0F1807F01D301209D
:100BF00010BD4FF0E02460610F21601700F052FA41
:100C00000020A06107202061002010BD70B5040005
:100C100004D094F84100002510B106E0012070BD19
:100C200084F84050204600F023F8242084F8410046
:100C30002068C16821F40051C160204600F09CF991
:100C40002068016921F4904101612068416921F027
:100C50002A0141612068C16841F40051C1606564A6
:100C6000202084F8410084F842006563002070BDB4
:100C700030B585B000240094019402940394006878
:100C80001449884224D11448816941F4804181612A
:100C9000816901F480410491816941F0040181611D
:100CA00080690E4D00F0040004904FF40070009035
:100CB000022001900320039069462846FFF788FB35
:100CC0002815CDE90004694628460294FFF780FB09
:100CD00005B030BD0038014000100240000801405E
:100CE0002DE9F843044690F84100984616460D4613
:100CF000202802D00220BDE8F88385B17EB1002013
:100D00006064212084F84100FFF770FCA6848146CE
:100D1000E684A0682027B0F5805F02D003E00120C0
:100D2000E9E7206910B12E4600250EE000260CE010
:100D30008021204600F07CF9A8B9C6B116F8010B55
:100D400021684860E08C401EE084E08C4B464FF008
:100D50000002CDF800800028EAD14FF04001204683
:100D600000F066F940B184F841700320C3E735F81C
:100D7000020BC0F30800E3E784F841700020BAE7F3
:100D8000FEE700002DE9F04186B0002427480094DA
:100D9000019402940394816941F020018161816989
:100DA00001F020010491816941F0100181618169A4
:100DB00001F010010491816941F0040181618069B1
:100DC0001B4F00F004004FF480760490002231465F
:100DD0003846FFF706FCDFF85C800022042140461D
:100DE000FFF7FFFB202001258DE8310069461248FE
:100DF000FFF7EEFACDE900650226CDE90246694625
:100E00003846FFF7E5FAE8038DE8310069463846D1
:100E1000FFF7DEFA0420CDE90005CDE90246694678
:100E20004046FFF7D5FA06B0BDE8F0810010024059
:100E3000000801400014014000100140FEE70000DE
:100E400010B50446FFF7E2F9214682B2BDE8104032
:100E50004FF47A730148FFF743BF000014000020ED
:100E6000FEE770477047FFF7C7BB30B58FB028214A
:100E70006846FFF7EAF914210AA8FFF7E6F901210D
:100E80000804CDE900100024029402250491CDE964
:100E900007504FF4E01009906846FFF713FD08B1C2
:100EA00072B6FEE70F20CDE90A054FF48060CDE968
:100EB0000C4002210AA80E94FFF728FC002801D05C
:100EC00072B6FEE70FB030BD7047000010B54FF4AA
:100ED00080710448FFF77DFBBDE8104002A0FFF7DA
:100EE000AFBF0000000801403E3E204C454430208A
:100EF000546F67676C65642E0D0A000010B50421FD
:100F00000348FFF766FBBDE8104002A0FFF798BF5B
:100F1000001401403E3E204C45443120546F676729
:100F20006C65642E0D0A000001680C3151E8002F39
:100F300022F4907241E80023002BF5D101681431AE
:100F400051E8002F22F0010241E80023002BF5D1E7
:100F5000016B012909D101680C3151E8002F22F001
:100F6000100241E80023002BF5D1202180F8421027
:100F7000002101637047000070B5044600680169F4
:100F8000E26821F44051114301612169A0680843DE
:100F9000616908432168CA6841F20C639A430243BD
:100FA000CA6020684169A26921F44071114341611E
:100FB0001E492068884202D1FFF74EFC01E0FFF78E
:100FC0003BFC00EBC00101EB001260686421800073
:100FD000B2FBF0F3B3FBF1F36FF018067343B2FB0F
:100FE000F0F5B2FBF0F605EB8305322303EB0515B4
:100FF000B5FBF1F5B6FBF1F605F0F00505EB0615CE
:10100000B2FBF0F6B2FBF0F0B0FBF1F06FF01802BB
:10101000504306EB800003EB0010B0FBF1F02168B9
:1010200000F00F002844886070BD000000380140C7
:101030002DE9F843984617460D460446089E24E0DD
:10104000701C22D0FFF7D2FAA0EB0800B0421AD8E9
:10105000CEB12068C168490717D5802D15D0402D25
:1010600013D00168C94309070FD4016800254068FF
:1010700000902046FFF758FF0820606484F8405035
:101080000120BDE8F8830320FBE72068006835EA0B
:10109000000004D00020B842D2D00020F1E70120A7
:1010A000F9E7FEE70907090E002804DB00F1E0205C
:1010B00080F80014704700F00F0000F1E02080F885
:1010C000141D7047FFF7A0FAFFF7CFFEFFF75AFE97
:1010D0003B483A490C2201604FF4E1314160002164
:1010E0008160C160C0E904128161C161FFF78EFDBA
:1010F00008B172B6FEE733A0FFF7A2FE3AA0FFF7F1
:101100009FFE41A0FFF79CFE2EA0FFF799FE45A091
:10111000FFF796FE49A0FFF793FE4EA0FFF790FE63
:1011200028A0FFF78DFE534F534D00244FF48076D7
:10113000002231462846FFF754FA0022042138469F
:10114000FFF74FFA9620FFF731F901223146284682
:10115000FFF747FA012204213846FFF742FA9620AA
:10116000FFF724F9641C032CE2DB44A0FFF768FEC0
:10117000DFF81C81474C4FF4004920214046FFF71F
:1011800023FA074649462846FFF71EFA0646207806
:1011900018B117B92EB1FFF799FE607838B11EB1BA
:1011A00005E0FFF7B7F8F8E70FB1FFF7A7FE2770E4
:1011B00066703220FFF7FAF8DFE7000000380140E0
:1011C000140000203D3D3D3D3D3D3D3D3D3D3D3D0F
:1011D0003D3D3D3D3D3D3D3D3D3D3D3D3D3D3D3D3F
:1011E0003D3D3D3D3D0D0A00202020536D61727450
:1011F000204C45442053797374656D20424F4F5401
:1012000045440D0A00000000202020426F617264F6
:101210003A2053544D333246313033524354360D15
:101220000A0000003E3E204B4559303A20546F677B
:10123000676C65204C4544300D0A00003E3E204B53
:101240004559313A20546F67676C65204C454431ED
:101250000D0A00003E3E204B4559302B4B4559317D
:101260003A20426C696E6B20426F7468204C454492
:10127000730D0A0000140140000801403E3E205357
:10128000797374656D2052454144592E0D0A000052
:1012900000100140000000200102020304050607BF
:1012A00008090A0B0C0D0E0F1010000000000000C2
:1012B0000000010203040607080900000000010203
:1012C00003040000E41200080000002014000000E5
:1012D0006C010008F812000814000020AC060000A1
:1012E000880100080101000001000000100000005A
:0812F0000000000000127A006A
:0400000508000131BD
:00000001FF
